:020000040800F2
:1000000000280020CD0200081D0300081D03000881
:100010001D0300081D0300081D0300080000000068
:100020000000000000000000000000001D030008A8
:100030001D030008000000001D0300081D03000848
:100040001D0300081D0300081D0300081D03000810
:100050001D0300081D0300081D0300081D03000800
:100060001D0300081D0300081D0300081D030008F0
:100070001D0300081D0300081D0300081D030008E0
:100080001D0300081D0300081D0300081D030008D0
:100090001D0300081D0300081D0300081D030008C0
:1000A0001D0300081D0300081D0300081D030008B0
:1000B0001D0300081D0300081D0300081D030008A0
:1000C0001D0300081D0300081D0300081D03000890
:1000D0001D0300081D0300081D0300081D03000880
:1000E0001D0300081D030008000000001D03000898
:1000F0001D0300081D0300081D0300081D03000860
:100100001D0300081D0300081D0300081D0300084F
:100110001D0300081D0300081D0300081D0300083F
:100120001D0300081D0300081D0300081D0300082F
:1001300010B5054C237833B9044B13B10448AFF321
:1001400000800123237010BD00000020000000008B
:100150006803000808B5034B1BB103490348AFF31C
:10016000008008BD000000000400002068030008B3
:1001700080B400AF074B1B68064A43F004031360CA
:10018000044B1B68034A43F00803136000BFBD46DD
:1001900080BC70471810024080B400AF214B002291
:1001A0001A60214B00221A60204B00221A60204B5B
:1001B00000221A601F4B00221A601A4B1B68194A52
:1001C00023F030031360174B1B68164A43F04003BB
:1001D0001360154B1B68144A23F440131360124B31
:1001E0001B68114A43F480031360114B1B68104ACB
:1001F00043F0200313600E4B1B680D4A23F0C0032D
:1002000013600C4B1B680B4A43F400131360094B3B
:100210001B68084A23F44003136000BFBD4680BC3E
:10022000704700BF00080140040801400C0801406D
:10023000000C0140040C014080B485B000AF786030
:100240000023FB600CE00023BB6002E0BB680133CD
:10025000BB60BA687B689A42F8DBFB680133FB60DD
:10026000FB68FF2BEFDD00BF1437BD4680BC704735
:1002700080B500AFFFF77CFFFFF78EFF114B1B68C7
:1002800003F00203002B0CD10F4B1B680E4A83F0C6
:100290000203136000BF0B4B1B6803F00203002B2B
:1002A000F9D0084B1B685B1303F00103012B05D148
:1002B000054B1B68044A83F4005313600120FFF7C9
:1002C000BBFFDBE7080801400C0C01400D488546E8
:1002D000AFF300800C480D490D4A002302E0D458CA
:1002E000C4500433C4188C42F9D30A4A0A4C002380
:1002F00001E013600432A242FBD300F011F8FFF7D3
:10030000B7FFFEE7002800200000002000000020CA
:1003100088030008000000201C000020FEE7000009
:1003200070B500250C4E0D4CA41BA410A54209D19C
:1003300000F01AF800250A4E0A4CA41BA410A5428E
:1003400005D170BD56F8253098470135EEE756F8CF
:10035000253098470135F2E7800300088003000844
:100360008003000884030008F8B500BFF8BC08BC8F
:100370009E467047F8B500BFF8BC08BC9E46704763
:04038000550100081B
:04038400310100083B
:04000005080002CD20
:00000001FF
