:100000000C942A000C9434000C9434000C943400AA
:100010000C9434000C9434000C9434000C94340090
:100020000C9434000C9434000C9434000C94340080
:100030000C9434000C9434000C9434000C94340070
:100040000C9434000C9434000C9434000C94340060
:100050000C94340011241FBECFE5D8E0DEBFCDBF25
:100060000E9436000C9466000C94000084B38C6FE0
:1000700084BB80E090E026C025B32F7025BB45B33C
:100080009C0122953295307F3227207F3227242B06
:1000900025BB25B3286025BB2FEF31EE44E021506E
:1000A00030404040E1F700C0000025B3246025BB8C
:1000B0002FEF31EE44E0215030404040E1F700C0E6
:1000C0000000019689309105BCF2D3CFF894FFCFA0
:00000001FF
