:100000000C040020C1030000B5030000B50300008C
:10001000B5030000B5030000B503000080B400AFD5
:1000200040F20C43C2F2000340F28D02C0F2000223
:100030001A60BD4680BC704780B400AF40F20C43EC
:10004000C2F2000340F2AD02C0F200021A60BD46E7
:1000500080BC704780B400AF40F20C43C2F2000392
:1000600040F28D02C0F200021A60BD4680BC7047AB
:1000700080B400AF40F20C43C2F2000340F28D02A4
:10008000C0F200021A60BD4680BC704780B500AF68
:100090004FF0010000F0ACF840F20C43C2F2000354
:1000A00040F27102C0F200021A6080BD80B500AF5C
:1000B0004FF0000000F09CF840F20C43C2F2000345
:1000C00040F27102C0F200021A6080BD80B400AF3D
:1000D00040F21043C2F2000340F2E902C0F2000213
:1000E0001A60BD4680BC704780B500AF00F074F860
:1000F000024640F20403C2F200031A6040F2040315
:10010000C2F200031B68184600F022F940F21043C7
:10011000C2F2000340F22112C0F200021A6080BD58
:1001200080B500AF4EF6602000F044F840F2104376
:10013000C2F2000340F2E902C0F200021A6040F28B
:100140001043C2F200031B68984780BD80B400AF23
:1001500040F21443C2F2000340F27512C0F20002F2
:100160001A60BD4680BC704780B500AFFFF756FFF0
:1001700080BD00BF80B500AFFFF75EFF40F21443C3
:10018000C2F2000340F29112C0F200021A6080BD78
:1001900080B500AF4AF22010C0F2070000F00AF864
:1001A00040F21443C2F2000340F26912C0F20002AE
:1001B0001A6080BD80B483B000AF786003E07B68D4
:1001C00003F1FF337B607B68002BF8D107F10C074C
:1001D000BD4680BC704700BF80B400AF40F6080346
:1001E000C4F201031B68DBB21846BD4680BC7047F1
:1001F00080B483B000AF78607B68012B0CD140F6EF
:100200000C03C4F2010340F60C02C4F201021268AE
:1002100042F400521A600EE07B68002B0BD140F6CE
:100220000C03C4F2010340F60C02C4F2010212688E
:1002300022F400521A6007F10C07BD4680BC7047DB
:1002400080B400AF41F21803C4F2020341F2180275
:10025000C4F20202126842F004021A604FF4006312
:10026000C4F201034FF40062C4F20102126822F4E6
:1002700070021A604FF40063C4F201034FF400628D
:10028000C4F2010212681A6040F60403C4F20103CA
:1002900040F60402C4F20102126822F470021A60ED
:1002A00040F60403C4F2010340F60402C4F2010262
:1002B000126842F022321A60BD4680BC704700BF0F
:1002C00080B500AFFFF7BCFF40F21043C2F200035D
:1002D00040F2CD02C0F200021A6040F21843C2F2AE
:1002E000000340F28132C0F200021A6040F214436F
:1002F000C2F2000340F26912C0F200021A6040F23A
:100300000C43C2F2000340F28D02C0F200021A60F8
:1003100080BD00BF80B500AFFFF7D2FF40F21043B1
:10032000C2F200031B68984740F21843C2F2000370
:100330001B68984740F21443C2F200031B689847B9
:1003400040F20C43C2F200031B689847E6E700BF87
:1003500080B483B000AF786040F20803C2F20003BB
:100360007A681A6040F21843C2F2000340F2813208
:10037000C0F200021A6007F10C07BD4680BC70474E
:1003800080B500AF40F20803C2F200031A6840F2E1
:100390000003C2F200031B689A4201DDFFF7D6FE9C
:1003A00040F21843C2F2000340F28132C0F2000270
:1003B0001A6080BD80B500AF00F002F880BD00BFBC
:1003C00080B586B000AF40F20402C2F2000240F2F3
:1003D0000003C2F20003D31ABB6040F27043C0F2C4
:1003E00000037B6140F20003C2F200033B614FF067
:1003F0000003FB600FE07B691A783B691A703B6968
:1004000003F101033B617B6903F101037B61FB683D
:1004100003F10103FB60FA68BB689A42EBD340F238
:100420000C42C2F2000240F20403C2F20003D31AEB
:100430007B6040F20403C2F200033B614FF0000313
:10044000FB600BE03B694FF000021A703B6903F15F
:1004500001033B61FB6803F10103FB60FA687B6801
:100460009A42EFD3FFF756FF07F11807BD4680BD4C
:040470001400000074
:00000001FF
