:100000000C942A000C9434000C9434000C943400AA
:100010000C9434000C9434000C9434000C94340090
:100020000C9434000C9434000C9434000C94340080
:100030000C9434000C9434000C9434000C94340070
:100040000C9434000C9434000C9434000C94340060
:100050000C94340011241FBECFE5D8E0DEBFCDBF25
:100060000E9436000C947F000C94000081B38061E4
:1000700081BB81B3806281BB81B3806481BB81B36A
:10008000806881BB82B3806282BB2FEF89E698E1F2
:10009000215080409040E1F700C0000082B38F7D86
:1000A00082BB82B3806482BB2FEF89E698E1215046
:1000B00080409040E1F700C0000082B38F7B82BB9C
:1000C00082B3806882BB2FEF89E698E1215080409F
:1000D0009040E1F700C0000082B38F7782BB82B30B
:1000E000806182BB2FEF89E698E1215080409040EB
:1000F000E1F700C0000082B38F7E82BBC3CFF894CB
:02010000FFCF2F
:00000001FF
